:020000041008E2
:4000000000780408EB0208100D00000051030810510308105103081051030810000000000000000000000000000000004D0308104D030810000000004D0308104D030810DA
:400040004D0308104D0308104D0308104D0308104D0308104D0308104D0308104D0308104D0308104D0308104D0308104D0308104D0308104D0308104D0308104D03081000
:400080004D0308104D0308104D0308104D0308104D0308104D0308104D0308104D0308104D0308104D0308104D0308104D0308104D0308104D0308104D0308104D030810C0
:4000C0004D0308104D0308104D0308104D0308104D0308104D0308104D0308104D0308104D0308104D0308104D0308104D0308104D0308104D0308104D0308104D03081080
:400100004D0308104D0308104D0308104D0308104D0308104D0308104D0308104D0308104D0308104D0308104D0308104D0308104D0308104D0308104D0308104D0308103F
:400140004D0308104D0308104D0308104D0308104D0308104D0308104D0308104D0308104D0308104D0308104D0308104D0308104D0308104D0308104D0308104D030810FF
:400180004D0308104D0308104D0308104D0308104D0308104D0308104D0308104D0308104D0308104D0308104D0308104D0308104D0308104D0308104D0308104D030810BF
:4001C0004D0308104D0308104D0308104D0308104D0308104D0308104D0308104D0308104D0308104D0308104D0308104D0308104D0308104D0308104D0308104D0308107F
:400200004D0308104D0308104D0308104D0308104D0308104D0308104D0308104D0308104D0308104D0308104D0308104D0308104D0308104D0308104D0308104D0308103E
:400240004D0308104D0308104D0308104D0308104D0308104D0308104D0308104D0308104D0308104D0308104D0308104D0308104D0308104D0308104D0308104D030810FE
:400280004D0308104D0308104D03081010B5054C237833B9044B13B10448AFF300800123237010BD287E020800000000005E0810084B10B51BB108490848AFF30080084847
:4002C000036803B910BD074B002BFBD0BDE81040184700BF000000002C7E0208005E081020460208000000007047FFF7FDFF72B6104C114DAC4209DA21686268A368043B1C
:40030000A2BFC858D050FAE70C34F3E70B490C4A00209142BCBF41F8040BFAE709480A490860BFF34F8F00F057FB00F031FB00F03BFAFEE75041091068410910287E0208C0
:40034000008902080040020808ED00E0FEE7FEE700B504207146084202D0EFF3098001E0EFF30880043001F037F8FEE710B590B014460A46014601A803F0DCFB01A9054806
:4003800000F08AFF012C03D11321034801F014F810B010BD00006640E44D081070B58CB0B0F5804F00F043810D462CD842F20403984200F0978010D841F2010398427CD08A
:4003C00003D8B0F5805F57D05AE141F2020398427ED0B0F5005F75D052E143F20303984200F08A8004D843F2020398427FD047E143F20603984200F09B8043F212039842A3
:4004000000F09B803CE144F20B03984200F0288116D844F20703984200F0B28005D844F20603984200F095802AE144F20803984200F0AB8044F20A03984200F0D1801FE119
:4004400045F20203984200F0E3800AD844F21003984200F0CA8045F20103984200F0CA800EE145F20303984200F0D78045F21703984200F0D78003E18749884800F00CFF47
:400480000021084601F0AAFB014620B101228448FFF76CFF03E000228248FFF767FF0BF0CBF9014620B100227F48FFF75FFFF0E000227E48FFF75AFFEBE07D49774800F049
:4004C000EBFEE6E0012200217A48FFF74FFFE0E00A78794902A803F02DFB02A96F4800F0DBFED6E075496D4800F0D6FED1E074496A4800F0D1FECCE07249684800F0CCFE72
:4005000006240EE06B681B68234413F8012C6E4902A803F0F7FA02A9604800F0BDFE013CE4B2002CEED169495C4800F0B5FEB0E067495A4800F0B0FEABE0584C65492046F1
:4005400000F0AAFE6449204600F0A6FE01F0A2F89FE06249514800F09FFE614B1B78022B04D160494D4800F097FE92E0002B40F090805D49494800F08FFE00F05DFA88E01D
:400580005A49464800F088FE83E05949434800F083FE584B1B88ADF804309DF80530012B02D8554AD35C00E00023002B71D10022524902A803F0A6FA02A9384800F06CFEE7
:4005C0000021084601F00AFB014620B101223448FFF7CCFE5DE000223248FFF7C7FE58E047492E4800F058FE53E046492B4800F053FE4EE00A883F4B1A800B784A784249DD
:4006000002A803F097FA02A9244800F045FE40E03E49224800F040FE3BE03D491F4800F03BFE36E03B491D4800F036FE31E01B4C3949204600F030FE089A384902A803F071
:4006400079FA02A9204600F027FE9DF92C20344902A803F06FFA02A9204600F01DFE18E00E4E3049304600F017FE02AC2E4D0FCD0FC42B68237002A9304600F00DFE08E016
:4006800002462A4902A803F055FA02A9034800F003FE0CB070BD00BFF04D081000006640084E0810304E0810584E0810844E0810B04E0810C84E0810DC4E0810004F081070
:4006C0002C4F0810544F08107C4F081070500810844F0810A84F0810D04F0810EC4F081067880208185008103450081050500810745008104C8802086488020898500810F0
:40070000C0500810F050081018510810405108106451081088510810B8510810E0510810EC510810FC5108101C5208103052081000B595B04FF0007000F0B2FE164800F076
:400740005FF9014620B101221448FFF70FFE03E000221248FFF70AFE12A805F087FC014620B101220D48FFF701FE11E09DF848209DF849309DF84A10BDF84C000190009165
:40078000074903A803F0D6F903A9064800F084FD15B05DF804FB00BF9D03081044520810645208100000664008B5FFF7C1FF62B60B4B1B7883B90021084601F0CDFA014641
:4007C00020B90849084800F067FD03E000220748FFF7CCFD05F05AFC05F058FCFCE700BF5A88020884520810000066409852081008B5012000F0ECFC08BD00BF704700BFB0
:400800005C4AD2F8803303F00F0303F1D00152F8212002F00702032A04D0042A05D092B9554914E0554A116811E003F1C002514951F8222002F01F02112A06D0132A04D04B
:400840004FF4FA4103E04E4901E04FF400418BBB484BD3F8902502F00100D3F88825C2F30172D3F8883513F0405F07D0414BD3F88835C3F30173012B02D102E0012300E00B
:40088000002303B108B9032A46D13A48D0F88025C2F31103D0F88425C2F30C02D0F88005C0F300600130B1FBF2F202FB03F2B2FBF0F131E0012B2FD12E4BD3F8402602F0F6
:4008C0000100D3F80026C2F30172D3F8003613F0405F07D0274BD3F80036C3F30173012B02D102E0012300E0002303B108B9032A12D12048D0F8002602F07F02D0F8003673
:40090000C3F30423D0F80006C0F3044002FB01F2B2FBF3F2B2FBF0F1164BD3F88033C3F3011321FA03F215494A601648D0F89030C3F3072301330069000E0130B2FBF0F015
:400940008860B2FBF3F3CB600B6103F5742202F23F220D48A0FB0202C2F387420A7503F2E7330A4AA2FB03239B098B61DB03CB61704700BF0000264000127A008C42020891
:4009800000366E010000214083DE1B43D34D621008B50D4800F0B8FEFFF730FFFFF730FF00221146042000F0C5F9084800F058FA074B1B6893F8513013B1064800F0C0FA64
:4009C00000F002F908BD00BF7C560810447E020850880208C452081008B500F05AFD074AD2F8883043F47003C2F88830BFF34F8FBFF36F8F00F051FD08BD00BF00ED00E000
:400A000008B518B1094AD062002000E0084858B9084B1B782BB9054800F0FEFE0122054B1A7008B900F048FF08BD00BFAC42020801001600C47F020808B500F0D7FF08BD2A
:400A40001F4B98422DD00CD840282ED003D8E8B1102828D02FE0802829D0B0F5807F28D029E0184B984228D006D8B0F1204F0DD0154B984212D01EE0144B98420AD0013391
:400A8000984209D0023B984215D101E0002070470F4870470F4870470F4870474FF4A0007047074870470D4870470D4870470D487047034870470C4870474FF4A400704735
:400AC00006005200010000F0090000A0040000F0010052000200520003005200010050000200500005005200FF00520038B5124B1B6893F83130012B04D840F2C3110F48AB
:400B000000F05AFC0C4B1D682A6AB5F8B03013442C46D5F8B420D358002B0BDB084B1868FFF78EFF6B6801229A6063689B68002BFBD138BD034838BD5088020840540810FE
:400B4000F47F0208020050001A4B186128B102230370FF23437000234380174B1B6893F850202AB300B583B0B3F93830ADF80030002301931149684600F0CAFBBDF90030B4
:400B8000002B08DB590903F01F03012202FA03F30B4A42F82130084B1B6893F8513023B102220849012000F077FA03B05DF804FB704700BFF47F0208508802089146020851
:400BC00000E100E04947020808B50248FFF7BCFF08BD00BF0880020838B50B4B1B68D3F8B4301B58002B0DDA0D4604460B0C1B0423B140F2D521054800F0DEFBA9B26160D1
:400C0000002038BD024838BD508802088054081001008A0038B50368002B01DA002300E0094B73B90D460446C2600B0C1B0423B140F2BB21054800F0BFFBA9B2A1600020DC
:400C400038BD014838BD00BF01008A008054081038B504460D4619B99921084800F0ACFB074B1B68D3F8B4301B59002B03DAE3682B60002038BD034838BD00BFC0540810F8
:400C80005088020801008A00254B1B6893F8313083423AD900293AD00B6813F01F0F38D170B50D4604461E4B1B6893F83130984204D340F2C3111B4800F07EFB184B1B682D
:400CC000186AB3F8B03004FB0304174E34602A68D2080021686802F00DFF00212046FFF77BFF346825B940F293310E4800F064FB2A4600212046FFF78DFF60B900210A4B79
:400D00001868FFF769FF40B970BD084870470748704706487047064870BD054870BD00BF50880208805408100C80020803018A0001018A0010B504461346B2B9A9B9124BD9
:400D40001B6893F83130984204D340F2C3110F4800F032FB0C4B1B681A6AB3F8B03004FB03240B4B1C60002010BD43B149B1084A51609360111D2046FFF786FF10BD0548FE
:400D800010BD044810BD00BF50880208805408100C80020803018A002DE9F0411B4B1B68DC68236883422CD90D464609A0EB4610012303FA00F819B900F06BFB074600E0E2
:400DC0000027124B18680368002B01DA002300E00F4B83B9626852F8263018EA030F05D023EA080342F82630002400E0094C0021FFF7F2FE00E0084C25B9384600F04DFBC2
:400E000000E0064C2046BDE8F08100BF0C80020801008A00020188000301880004018A000B4B1B68DB681A6882420CD94109A0EB4110012202FA00F05B6853F82130184249
:400E400003D004487047044870470448704700BF0C8002080101880004018A0000018800024B1B680BB9014B18607047188002082DE9F8430446884691461D46089F2C4B2D
:400E80001B681BB9B5212B4800F096FA284B1B682C2000FB04F01C18EEB21E50C5F3072363602D0CA560244B1B6893F831309E4204D340F2C311214800F07EFA1E4B1B6864
:400EC000196AB3F8B02006FB02162661666893F832309E4204D340F2DF11184800F06CFA154B1B681D6A803605EB46156561A668330C1B0423B14FF4FF71104800F05CFA48
:400F0000330C1B0423B140F2FF110C4800F054FAB3B243EA0646AE60C4F81C90C4F820800023A36117B1B7F90030A381BDE8F883188002080055081050880208805408100B
:400F4000F0B58FB0044618B95221274800F034FAA369072B03D95621234800F02DFAE36A1BB95821204800F027FA236B1BB959211D4800F021FA07AD04F114060FCE0FC58C
:400F800037682F6002AD26460FCE0FC533682B60164B1B68B3F93620079B1344ADF83030089B0D93A26AE16A0CAD00953B460A98FFF75EFF00210091069B0A460598FFF799
:400FC00057FF216B284600F0A3F9BDF93030002B08DB590903F01F03012202FA03F3044A42F821300FB0F0BD005508105088020800E100E0F8B506460F461D4614461AB932
:40100000FD211F4800F0D8F91E4B1B681BB9FE211B4800F0D1F91B4B1B682C2101FB063001FB07314B68012202FA03F31B04466802FA06F60269EAB18F69EFB91268002AFB
:4010400001DA002200E0104AC2B92288134323600369DC6001238B614D620469330C1B0423B140F2BB21094800F0A6F9B2B2A2600020F8BD0648F8BD0648F8BD0548F8BD04
:40108000005508101880020801008A008054081004028A0007028A00F8B505460F4616460E4B1B6823B94FF4AF710D4800F084F90A4B1B682C2404FB0534236A23B94FF4F5
:4010C000B171074800F078F9E369B34204D9236A43F826700020F8BD0248F8BD18800208005508100A028A0038B504460D46074B1B6823B94FF4C871054800F05DF9034B91
:401100001B682C2202FB0434A56238BD188002080055081070B582B000230193044620B940F2D111284800F047F9236923B94FF4E971254800F040F9636923B940F2D31160
:40114000214800F039F9236A23B94FF4EA711E4800F032F96369DD682A0C20D012041A601B682069194B1B68D3F8B430C358002B15DA01A9FFF76CFD60B9019803681E0C6E
:40118000DBB2E269934206D2226A52F8233013B1984700E0002631462069FFF71DFDADB275B16369ADB21D601B68636A1BB198470023636202E0A36A03B198470023A3610F
:4011C00063691B6802B070BD005508105088020810B50446074B1B6823B940F2B111064800F0EAF8034B1B682C2000FB0430FFF791FF10BD188002080055081010B50446E1
:40120000104B1B6823B940F22B210F4800F0D4F80C4B1B682C2202FB0434B4F90C30002B0DDB5A0903F01F03012101FA03F32032064941F82230BFF34F8FBFF36F8F0020F3
:4012400010BD00BF188002080055081000E100E010B504460D4B1B6823B940F24B210C4800F0AAF8094B1B682C2202FB0434B4F90C30002B08DB590903F01F03012202FAE1
:4012800003F3044A42F82130002010BD188002080055081000E100E030B4036813F4006F01D0802200E04022002408E0D0F80832C3F308039A42F9D0C0F8405201340D5DCB
:4012C000002DF3D130BC704738B50D4B9A680D4B9A420FD10D46044621B940F237110A4800F06AF804F11003064A52F8230042F8235038BD1030054B53F8200038BD00BF54
:4013000000ED00E000400208405508100000081048B338B504460D464368072B03D93221134800F049F8B4F900306268002B08DB5201D2B203F1604303F5614383F8002357
:4013400005E003F00F035201D2B20A49CA540A4B9A680A4B9A4208D12946B4F90000FFF7B3FF002038BD06487047002038BD00BF4055081014ED00E000ED00E00040020883
:401380000100560010B5044605E0084B186800F077F8A4F50044B4F5004FF6D8044B186800FB04F000F06CF810BD00BFA8420208A442020801BEFEE738B50D46044C18221D
:4013C0000146204602F0DAFBA5610020FFF7F2FFC04B0208FEE700BF08B50268254BDA6142681A6282685A62C2689A620269DA6242691A6382695A63C2699A631E4A916AED
:40140000D963D16A1964516A5964516B9964926BDA64F1EE103A13F0900F27D0026A154B1A65426A5A65826A9A65C26ADA65026B1A66426B5A66826B9A66C26BDA66026C5C
:401440001A67426C5A67826C9A67C26CDA67026DC3F88020426DC3F88420826DC3F88820C26DC3F88C20026EC3F89020FFF7B2FF08BD00BFC04B020800ED00E00000000076
:401480000230800803D001300238FCD100BF00BF7047EFF3108072B6704780F31088704710B5044620F07F6323F4402323B140F2B3511348FFF780FF14F4700F16D014F059
:4014C000806F01D1002101E04FF4800114F0006F01D041F4000114F0807F01D041F4801114F0007F03D041F4001100E00021054A536823EA01031C435460536810BD00BF3F
:40150000845508100000264010B30246C3680BB303680BB330B40579114B03EB85035C682346002103E0934205D019465B69002BF9D1012000E0002080B124B9084B03EBA0
:4015400085056A6000E04A6111610023536105E000207047002070470020704730BC70471C80020850B310B402460479164B03EB840359680B4602E0934204D05B69002BA2
:40158000FAD1002000E00120D0B18A420ED14B6933B10D4A02EB8404636000221A610FE0094B03EB84040023636009E01A69596951615A6922B11B69136101E0002070478A
:4015C0005DF8044B704700BF1C80020830B583B004460D46022808D9042806D0032804D040F6B2112848FFF7E7FE6B1EDBB2012B08D9042D06D0082D04D040F6B31122488F
:40160000FFF7DAFE214800EB84004468042D12D0012D1AD111E0A3681D420AD1E3681A6800925B6801932368294668469847174B9C61646902E0002000E0002014B3144B65
:401640009842E8D1012DE6D11CE0022D01D104E01C466369002BFBD103E00C4B9C6904B1246900200CE0A3681D4208D1E3681A6800925B6801932368294668469847246952
:40168000002CF0D103B030BD845508101C800208FF00420010B5174BDB682BB101210220FFF794FF044600E00024E4B9FFF7F1FE104BDB681BB104210220FFF787FF0E4B5C
:4016C00059680E4A0A4042F01B025A6059680C4A1143596059681143596059680A435A605B6830BF04E002210846FFF76FFF054C204610BD1C800208000026400000FC0FBE
:40170000003A0280FF004200014B1860704700BF5088020810B5012902D0082929D02EE01A4B1B78012B2CD00320FFF779FB184B984228D0FFF7ADFE164B1860022004F025
:40174000A7FC044604F0AFFC022C05D1032805D0052805D1002404E00F4C02E0002400E00D4C0D4B9C420FD10A4B1868FFF795FE0AE0084B1868FFF790FE002404E0064C25
:4017800002E0054C00E0044C204610BD5B8802080101880058800208FF00420008B502291CD0082914D001291ED1124B1B78012B1CD0FFF76EFE104B5860022004F068FC00
:4017C000022815D00C4B5868FFF767FE0B4808BD094B5868FFF761FE002008BD064B5868FFF75BFE054808BD044808BD034808BD002008BD5B88020858800208FF0042007A
:4018000010B5044C2046FFF7ADFE04F11800FFF7A9FE10BDC0430208002833D010B51A4A9060C36A03B1D3600024184B1C70184B1C80184B1C60184B1C605C609C60DC60EC
:401840001C824FF0FF32154B1A6044222146144802F050F907E004EB04129300104A1344FF221A640134002CF5D000240D4B1C700D4B1C7000F06CF90C4B1C700C4B1C8010
:40188000204610BD0B487047588002088C88020890880208EC8802089488020854880208A8880208928802088D880208598802085C8802080100160070B59AB0414B16AC15
:4018C000186859689A68DB680FC44C22002103A802F010F93C4B039316AB059343F2D413ADF8183004238DF81A30384A92681269079241F2960208921B22ADF82420ADF825
:40190000262003228DF828208DF8293006238DF82A3010238DF82B308DF82C308DF82D307223ADF8503002238DF85430284C2046FFF7EAFD04F11800FFF7E6FD04F094FBAB
:4019400009A804F0FBFB0346002838D1214B04931E4B9B68996B89B10B460DF12E0220311E685D689C68D868166055609460D060103310328B42F3D11B88138003A804F00C
:40198000A5FB0346C0B90122134B1A700023134A1380134A1370134A13700C4B9B681A6A01929B6ADB88ADF808300823ADF80A3001A80DF08BFA034600210B4A116018466E
:4019C0001AB070BD345708106D2F081058800208C0430208544C02085B88020864880208678802085A880208EC88020808B505F0EBFC08BD08B5044B1B689847034B1B681D
:401A000003B1984708BD00BF7C8002086880020808B510B1034A52689047034B1B6803B1984708BD7C8002086880020870B5C0B006460C4615464FF480720849684602F066
:401A40004EF805E016F8012B6A401DF80250013C002CF7D1284640B070BD00BF4457081008B50022FFF7E2FF08BD00BF08B5FFF710FD08BD08B5FFF710FD08BD08B50120A0
:401A8000FFF7E6FB08BD00BF08B50120FFF7B6FB08BD00BF08B5094B58601960012208491046FFF7F9FA034628B9002205490120FFF7F2FA0346184608BD00BF7C800208FF
:401AC000111A0810F519081038B515460B46024601210020FFF78EFA044618B129460120FFF702FB204638BD704700BF704700BF0020704700487047110016000048704703
:401B00001100160000487047110016000048704711001600004870471100160000487047110016000048704711001600004870471100160000487047110016000048704775
:401B4000110016000048704711001600704700BF08B5002335E003EBC3014A001C498A5AAAB903EB0312910020311A4A11440022C1F80620C1F80A20C1F80E204A8203EBE2
:401B8000C3014A0012490A444FF4C051918003EBC3014A000E490A44D2888AB903EB03118A0002F130010B4A0A4400215160118103EBC3014A0006490A4441F60101518170
:401BC0000133002BC7D0044801F04EFF08BD00BF94880208A8880208EC7F0208F8B5022872D8002972D10022134606E03B4CE45C012C01D90132D2B20133012BF6D9022A3E
:401C00000CD1374B1B681C6801EB8102930023445B681B79023BDBB2012B59D8314B1B78002B57D1304B1970E0B92D4F3C68236801EB8105AA009D186668C1EBC1014B0055
:401C40001E44B18829822168114449686468E45A0C8039680C682244526849680B445B8853801EE001281CD11D4F3C68236801EB8105AA009D186668C1EBC1014B001E44A5
:401C8000B1892982216811444D68616819440989298039680C682244526849680B445B895380124B18700E4B1B6818680E4B1B7803EB83039A00104408F0DAFD034650B9AF
:401CC0000121084A117006E0094B04E0084B02E0084B00E0084B1846F8BD00BF64880208608002086788020858880208928802080100160002001600FF00160070B439B903
:401D0000144B1B681B689968CE7F00231D460EE0104B1B681B68D968CE7FF6E7CA5C52B10133CC5C1B2C01D0134400E00125B34201D2002DF2D05DB101338279CA54002282
:401D400004E0D4180134855C0D550132052AF8D970BC704760800208F8B502284FD82A4B1B78002B4DD1294B1970D0B9284F3C68A36801EB4105AA009D18E668162303FB0A
:401D800001F31E44B6882E81A5681544E468E45A6C803C68A5682A44E46823445B8893801CE001281AD11A4F3C68A36801EB4105AA009D18E668162303FB01F31E44B68969
:401DC0002E81A5681544E4681C4424896C803C68A5682A44E46823445B8993800D4B18700B4B1B68986801EB41018B00184408F011FD034630B90121034A117002E0064B97
:401E000000E0064B1846F8BD5A88020866880208608002088D88020801001600FF00160010B50A4B1B78032B0DD108F0E1FC0446074B5B7813B1064805F0D6FA24B9022270
:401E4000024B1A7000E0034C204610BD5B88020860880208FF00160070B504460DF050F8054620BB134B1968086A228902EB82029300143B03445A6812F0007F17D0E67B3A
:401E80001B695A68CB69D21A06EB4606B318A28821680948184401F022FEE37B074AD35C012B04D1064A137843F002031370284670BD00BF60800208848802085C88020886
:401EC0005988020830B587B002891A4B1B685B699B889A4229D1044601AB07C883E807000022ADF81020A289ADF8122040228DF814201846FFF7B0FF054680B923681B78BB
:401F000003F002039BB22BB10B4B1B6821460B48984704E0084B1B68214609489847094A137803F0FE03137000E00025284607B030BD00BF608002086480020805000100B4
:401F4000060001008C8802084288531E9BB20E2B1BD8417801291AD810B4104B1868046A02EB82029300143B23445A6812F0007F0FD01B695A68C369D31A01EB41011944E0
:401F8000074B5B5A1380002004E0012070470120704700205DF8044B704700BF608002088488020870B582B0ADF80400C5B2FF2D1AD122E004EB0413244A02EB83031A6C9C
:401FC000234B13F812309D420CD104EB04161F4B03EB860644220021304601F08BFDFF2333642146013401E00024FF210CB9FF29E0D0FF2914D0002013E0442200211348EF
:4020000001F078FD002307E003EB03110F4A02EB8102FF2111640133002BF5D0002000E00C4800230EE00A4A12F813109DF80420914206D1064AFF2102F8131002EB4302A4
:4020400051700133012BEED902B070BDA8880208548802080700160082B0ADF80400012000230EE003EB03118A0008490A44116C074A12F811109DF80420914200D1184670
:4020800001330BB90128EDD002B07047A88802085488020870B504460088FFF7DDFF237E012B37D100EB001293001B4A13445A6802EB4202510000EBC00253000B44174ADB
:4020C00013449A8841F601039A4223D1228942F605239A4219D100EB001293000E4A1344DB8E6BB9E688114603011D18AA0015460A44D68622792B460B4483F8342004E004
:40210000074B1B68214607489847074A137803F0FE03137070BD00BFA888020894880208648002080D0001008C88020810B504460088FFF791FF00EB00129300114A13441D
:402140005B68012B1DD1A28842F602139A4213D100EB001293000B4A13441B8F3BB9628800EB0010830007490B441A8704E0064B1B68214605489847054A137803F0FE03B0
:40218000137010BDA8880208648002080E0001008C88020810B504460068FFF75DFF00EB00129300174A13445B68012B29D1A3683BB1020102449300124A13449A680132C5
:4021C0009A6000EB001293000E4A13449B689BB90201024493000B4A1344DA8E013262805A6802EB4202510000EBC00043000B44054A13445B88A380044A137803F0FE0350
:40220000137010BDA8880208948802088C88020810B50446C068FFF71FFF90B900EB00139A00084B1A44D28E23899A4209D1064B1B68214605489847054A137803F0FE03FC
:40224000137010BDA888020864800208070001008C88020810B504460088FFF7FDFE237E012B40F0BE8000EB001293005D4A13445B68002B40F0B580238942F6032293423E
:4022800057D008D842F60122934228D03CD8B3F5285F0FD0A0E042F6A622934273D042F6C922934200F0848042F60422934240F0938053E000EB001293004A4A1344DB8CBE
:4022C0003BB9E28800EB0010830046490B44DA8482E0454B1B682146444898477CE000EB001293003F4A13441B8D3BB9E28800EB001083003B490B441A856DE03A4B1B6868
:4023000021463A48984767E000EB00129300354A13445B8D3BB9E28800EB0010830031490B445A8558E0304B1B6821462F48984752E000EB001293002A4A13449B8D3BB920
:40234000E28800EB0010830026490B449A8543E0254B1B682146254898473DE000EB00129300204A1344DB8D3BB9E28800EB001083001C490B44DA852EE01B4B1B682146AC
:402380001A48984728E000EB00129300154A13441B8E3BB9E28800EB0010830011490B441A8619E0104B1B6821461048984713E000EB001293000B4A13445B8E3BB9E288D5
:4023C00000EB0010830007490B445A8604E0064B1B68214605489847054A137803F0FE03137010BDA8880208648002080D0001008C88020830B583B004460378032B52D1F5
:402400004378807843EA0020FFF726FE0546002849D100EB001293002B4AD35C002B42D0B4F80130ADF800309DF80130012B02D8264AD35C00E00023033B032B1AD8DFE83F
:4024400003F002080E14224B1B68611C2148984710E01F4B1B68611C1F4898470AE01C4B1B68611C1D48984704E0194B1B68611C1B48984705EB0515AB000021124AD15472
:40248000B4F80130ADF804309DF80530012B03D802210E4AD15406E0012B04D840F286311048FEF789FF2378042B0AD10E4B1A78E3789A4205D10D4B1B78032B01D1FFF7CB
:4024C000AFFC03B030BD00BFA8880208648802086480020808000100090001000A0001000B00010050580810608802085B88020800B583B00023ADF804308389ADF8003026
:402500000389ADF8023012238DF80430084B1B7813F0010F09D129B18DF8051068460BF01BFE02E0C0680BF037FE03B05DF804FB8C88020810B4044688B10023194606E033
:40254000104A52F82320944200D1012101330D4A1279934206D20029F2D0002003E00021094800E0002050B949B9064B1B792BB9044A42F823400133137100E003485DF891
:40258000044B7047F0880208010016000300160070B506460D460020044606E0084B53F824302946304698470134054B1B799C4204D2044B1B7813F0010FEFD170BD00BF2B
:4025C000F08802088C88020883792BB100207047C25C32B9013300E00023052BF8D9002070470120704700BF2DE9F04385B0054600230193029303930389ADF804308068E5
:40260000FFF72AFD04462B89ADF80030C3F30723012B02D8564AD35C00E00023032B40F0A480002C40F0A18004EB0413514A12F82330002B00F09980AF88062F02D0142F40
:4026400040F08D80B5F8068000267FE04A4A137843F0010313702B689A190292995B04EB0413444A02EB83035B8F99425FD304EB041302EB83039B8F99425AD8062F4DD1BD
:4026800043E001238DF80C3009EB490304EBC402520002EB4303394A13449888029B9A8890422FD109EB490004EBC40E4FEA4E0E0EEB4000DFF8C4E03EF8000058B909EB8B
:4026C000490204EBC401490001EB420219684EF80210012116E0B9F1010F0DD809F1010303EB430004EBC4035B0003EB4003234803449B889A4205D0214B1B6801A92148D9
:402700009847012109F1010902E04FF000094946B9F1020F0ED80029B3D00BE002238DF80C3001A91848FFF733FF002102E0002100E0002149B9104B1B7813F0010F04D08F
:402740000F4B1B6801A9114898473E444645FFF47DAF094A137803F0FE03137005E0084B1B6805F108010A48984705B0BDE8F08364880208A88802088C88020894880208ED
:40278000648002080C0001002F01010012000100080001002DE9F04F8BB007468068FFF75BFC002840F0F480064600EB00137A4A12F82330002B00F0EB80BD88B7F8069078
:4027C0003C683B89ADF80430C3F30723012B02D8724AD35C00E00023052B4DD13B89ADF80C30002640E06E4A137843F0010313702378627843EA0223ADF80E30A3788DF844
:402800001030E378227943EA0223ADF81230671D152D0DD102238DF8243005AF234653F8050F59689A68DB680FC704F115070BE0072D09D101238DF824306379A27943EA04
:402840000223ADF81430E71D152D01D0072D09D103A8FFF7FFFC03A8FFF71CFC03A95148FFF796FE2E443C464E45BCD34C4A137803F0FE0313708BE03B89ADF80830C3F391
:402880000723012B02D8454AD35C00E00023042B7ED13B89ADF80C304FF0000BD8466DE03F4A137843F0010313702378627843EA0223ADF80E30A378E27843EA0223ADF86B
:4028C00010302379627943EA0223ADF8123004F1060A062D1AD13B89ADF8003002238DF8243068460AF030FE06EB06142A4B03EB84040C340DF10C0EBEE80F000FC49EE8FC
:40290000070003C422804FF0010B31E0082D2FD101238DF82430A379E07943EA0020ADF8140004F1080A002120E001EB410306EBC602520002EB43031B4A13449B888342E4
:4029400013D101EB410306EBC602520002EB4303154AD35A4BB901EB410106EBC6035B0003EB41010498505002E001310229DCD903A90E48FFF70CFEA8445446C84502D269
:40298000BBF1000F8CD0064A137803F0FE0313700BB0BDE8F08F00BFA8880208648802088C880208310101009488020830010100F0B589B004468068FFF74EFB0023ADF820
:4029C0000A302389ADF80430C3F30723012B02D8284AD35C00E00023062B48D1002846D100EB0010244B13F82030002B3FD0A688A37A8DF81C302289ADF80820012B01D174
:402A0000042700E012272468002529E01B4A137843F0010313702378627843EA0223ADF80A309DF81C30022B0BD10DF10C0E234653F8020F59689A68DB68AEE80F00123490
:402A400006E0A378E27843EA0223ADF80C30043402A8FFF76BFB02A90948FFF799FD3D44B542D3D3054A137803F0FE03137009B0F0BD00BF64880208A88802088C88020820
:402A80003201010030B589B0ADF804000D460198FFF7E2FA0446002305930693BDF80430ADF814300795474A137843F0010313700023ADF81630ADF8183045B904EB04137C
:402AC000414A02EB830300225A609A60012505A8FFF760FB05A93D48FFF75AFDBDF8163013B1BDF818305BB904EB0413364A02EB83035A6801325A6000229A60079201E050
:402B000001230793BDF8161004EB04132E4A02EB83035B8F99420DD904EB04122A4800EB8202928F914205D8BDF81820934201D8914207D904EB0413234A02EB83035B68B2
:402B4000022BB0D904EB04131F4A02EB83035B68022B16D8DDF816000390BDF80430ADF8103003A80AF02CFC48B3194B1B6801A91848984704EB0414A3000021124AD154AF
:402B80001DE0BDF80430ADF80C30C3F30723012B03D80721104AD15406E0012B04D840F286310E48FEF708FC094B1B6801A90C48984704EB0414A4000022034B1A5509B0A3
:402BC00030BD00BF8C880208A888020833010100648002080B00010064880208505808101300010030B589B0ADF804000D460198FFF732FA044645B100EB00133F4A02EB4F
:402C000083035A6801325A600EE000EB00133B4A02EB830300225A6006E004EB0412374901EB82020133536004EB0413334A02EB83035B68022B17D803EB430204EBC40121
:402C4000490001EB42022E49885A04EB04122B4901EB8202528F9042DFD304EB041201EB8202928F9042D8D8022B23D800220392049205920692079203EB430304EBC402F6
:402C8000520002EB43031E4AD0580290BDF80430ADF81D3002A80AF0B7FB60B3194B1B6801A91948984704EB0414A3000021134AD15420E0154B1B7813F0100F04D0114BC6
:402CC0001B6801A912489847BDF80430ADF80830C3F30723012B03D806210E4AD15406E0012B04D840F286310B48FEF765FB00210198FFF7C7FE09B030BD00BFA88802088A
:402D000094880208648002080A0001008C88020811000100648802085058081030B589B0ADF804000D460198FFF796F9044645B100EB00133F4A02EB83035A6801325A606D
:402D40000FE000EB00133B4A02EB830300225A60DA8106E004EB0412364901EB82020133536004EB0413334A02EB83035B68022B17D803EB430204EBC401490001EB420241
:402D80002D49885A04EB04122A4901EB8202528F9042DFD304EB041201EB8202928F9042D8D8022B23D800220392049205920692079203EB430304EBC402520002EB4303AB
:402DC0001D4AD0580290BDF80430ADF81D3002A80AF062FB60B3194B1B6801A91848984704EB0414A3000021124AD15420E0154B1B7813F0100F04D0104B1B6801A91248DC
:402E00009847BDF80430ADF80830C3F30723012B03D805210D4AD15406E0012B04D840F286310B48FEF7C8FA00210198FFF7DAFE09B030BDA8880208948802086480020807
:402E4000090001008C88020810000100648802085058081000B585B0ADF804000198FFF7FBF800285DD100EB00132F4A12F82330002B56D0BDF80430ADF80830C3F307232D
:402E8000012B02D8294AD35C00E00023033B032B47D8DFE803F00229333D254B1B7813F0100F04D0234B1B6801A923489847BDF80430ADF80C30C3F30723012B03D80421D3
:402EC0001A4AD15406E0012B04D840F286311B48FEF772FA00210198FFF720FF144A137803F0FE0313701CE001210198FFF716FF0F4A137803F0FE03137012E001210198B5
:402F0000FFF770FE0A4A137803F0FE03137008E001210198FFF7B6FD054A137803F0FE03137005B05DF804FBA8880208648802088C880208648002080F0001005058081025
:402F400010B504460088FFF787F858B900EB00139A00054B9B5C2BB163790A2B02D12088FFF778FF10BD00BFA888020870B58EB004460D46D44A137843F00103137045F220
:402F80000203984200F0D28372D8B0F5804F00F00E8436D841F20403984200F0DB8417D841F20103984200F0748105D8B0F5805F00F0D48000F0D3BC41F20203984200F031
:402FC000708141F20303984200F0BD8100F0C7BC43F20103984200F01E8106D842F20403984200F02C8100F0BABC43F21203984200F0118143F21903984200F0A88000F0BB
:40300000AEBC44F20A03984200F0278218D844F20603984200F0768206D844F20403984200F0A48100F09BBC44F20703984200F0178244F20803984200F0608200F08FBC63
:4030400044F21003984200F00B8206D844F20B03984200F0938200F082BCB0F5A04F00F0FA8345F20103984200F0EA8200F077BC45F20E03984200F0C48331D845F2090347
:40308000984200F0068418D845F20503984200F0CC8306D845F20303984200F07E8300F05EBC45F20603984200F0C38345F20703984200F0CC8300F052BC45F20B039842BD
:4030C00000F0EA83C0F0B98345F20C03984200F0718345F20D03984200F0E18300F03FBC45F21303984200F0C18312D845F21003984200F08C83C0F0878345F211039842DC
:4031000000F0D08345F21203984200F0AC8300F026BC45F21703984200F07F830BD845F21403984200F0768345F21603984200F0BC8300F014BC45F21803984200F08083EC
:4031400046F20103984200F0788200F008BC5E4A137803F0FE03137000F001BC5B4B1E683046FFF731FA60B1304608F077FB574E00213068FEF7C2FD01213068FEF7BEFD14
:4031800037E0534B1A68936A1B791BB34FF0B05191F8043603F03F0391F8050600F03F0043EA801391F8030600F01F0043EA003391F8001601F07F0143EA4143126B1370FC
:4031C000434A1168096BC3F3072048701268126B1B0C93703E4E3368186B08F03FFB33680021186BFEF78AFD33680121186BFEF785FD374B1B68986A023008F045FF354A5D
:4032000007AB1068516803C307A808F04BFB0222314B1A70A3E300232F4A13702F4A13702F4A13702F4A138043F212039C4240F096830A20FEF7A6F8FEF7E2FA8FE32A4B3F
:403240001B6813F0010F40F08A830023ADF81C308DF81E301E4E33689B6A93F900308DF81C3007A808F038FB33689B6A93F901308DF81C3001238DF81D30FF238DF81E3008
:4032800007A808F029FB184A136843F00103136065E30846FFF7AEF829462046FFF778F95DE34978114B1B88ADF81C30002332E00F4A32F81320ADF810209DF81120012AAC
:4032C0001AD80C48825C18E08C880208F043020860800208445808105B880208678802085A88020894800208EC8802084C58081054880208648802080022012A0AD9AA4A8F
:4033000012F81320914205D1A74A32F81330ADF81C3002E00133012BCAD99DF81D30FF2B05D104D140F2CA31A048FEF745F8BDF81C30ADF82830ADF82430C3F307232978FD
:403340009B4AD1540BE30B78002B40F008830B7A33B9984B0022DA809A80974A1A604B60964A137803F0FE031370F8E24979944B1B88ADF81C3000231AE08B4A32F81320BC
:40338000ADF814209DF81520012A02D88D48825C00E00022012A0AD9834A12F81320914205D1814A32F81330ADF81C3002E00133012BE2D99DF81D30FF2B05D104D140F2E0
:4033C000CA317A48FDF7F8FFBDF81C30ADF82C30ADF81C30C3F3072369787B4AD154EB78002B40F0BC826979754B1B88ADF81C3000231AE06C4A32F81320ADF818209DF8B3
:403400001920012A02D86F48825C00E00022012A0AD9654A12F81320914205D1624A32F81330ADF81C3002E00133012BE2D99DF81D30FF2B05D104D140F2CA315B48FDF792
:40344000BBFFBDF81C30ADF83030ADF81C30C3F3072301215D4AD15481E2FFF799F87EE2AB7E002B46D12B7E012B02D10022584B1A70584B5B7813B1564803F0B5FFE97E3B
:403480004F4B1B88ADF8183000231AE0464A32F81320ADF81C209DF81D20012A02D84948825C00E00022012A0AD93F4A12F81320914205D13C4A32F81330ADF8183002E070
:4034C0000133012BE2D99DF81930FF2B05D104D140F2CA313548FDF76FFFBDF81830ADF83430ADF81830C3F30723FF2B02D0297E394AD1540222394B1A7030E20222374BEA
:403500001A702CE2FFF744F82C4B1B7813F0010F00F025822E4B1B78012B03D102222C4B1A701CE2032B03D10022294B1A7016E2022B40F014820022254B1A70284B1B68BF
:403540005B68284A1178C1EBC10203EB42039A79002A00F004829B88002B00F00082224B1B78002B40F0FB810120FEF737FB002840F0F5810122164B1A70F0E1FFF708F8B6
:403580000E4B1B7813F0010F00F0E981174B1B78012B03D10222154B1A70E0E1032B27D10022124B1A70DAE15488020850580810908802089C800208287E02088C88020848
:4035C0004C580810648802085C880208948002086788020860880208988002085B8802086080020858880208928802085A880208022B40F0B4810022B44B1A70B44B1B6870
:40360000DA68B44B1978162303FB01239A79002A00F0A5819B88002B00F0A181AE4B1B78002B40F09C810120FEF796FB002840F096810122A54B1A7091E1FEF7A9FF8EE175
:403640000B88ADF800309DF80130012B02D8A34AD35C00E00023012B14D129786B78A04A12F8132091420DD1012B03D807219B4AD15424E0012B22D840F286319948FDF769
:403680009BFE1CE02B78687843EA0020FEF78AFC2B88ADF804309DF80530012B03D802218E4AD15406E0012B04D840F286318D48FDF782FE6A782988894B23F812106B7806
:4036C0000021894AD1546A7802EB4202874E91197F4B1B6818692B7803EB430303F584531033034433F8060F9B7890538B70687800EB400002213044FEF7B2F96B7803EBDD
:40370000430333449B7898420BD0794B1B680021784898476B7803EB4303981900229A53827029462046FEF733FF18E10B88ADF808309DF80930012B02D8684AD25C00E03B
:403740000022072A0DD1012B03D80121634AD1541AE0012B18D840F286316248FDF72CFE12E0012B03D800215C4AD15406E0012B04D840F286315B48FDF71EFE2B78687864
:4037800043EA0020FEF70EFC6B7800215A4AD15429462046FEF7FCFEE1E00B88ADF81C301723ADF81E3007A80AF0E2FCD7E0FEF7EFFED4E00A89531E9BB20E2B13D98B895C
:4037C000ADF81C30ADF81E2012238DF8203001238DF8213007A80AF0BFFC484A137803F0FE031370BBE00846FEF76CFB014620B929462046FEF7CCFE01462846FEF778FEE0
:40380000ADE0FEF7C5FEAAE0FEF7C2FEA7E0FEF7BFFEA4E0FEF7BCFEA1E00846FEF794FB29462046FEF7B4FE99E00846FEF7DCFE95E00846FEF7AEFF91E0FEF7A9FE8EE053
:403840000B78487843EA0020FFF704FB87E00846FFF7AEF883E00846FFF772FB29462046FEF796FE7BE0FEF793FE78E00846FEF7CFFC29462046FEF78BFE204B1B7813F065
:40388000010F6CD1AB890EA820F81C3D09F08CFD65E0FEF77DFE62E0FEF77AFE5FE0FEF777FE5CE0FEF774FE59E00B78487843EA0020FEF7D1FB06462B88ADF80C309DF82F
:4038C0000D30012B1CD8054AD35C1AE05A88020860800208668802088D88020864880208548802085058081090880208848802086480020804000100948002088C88020803
:403900000023042B2BD156BB06EB06131C4A12F8233023B306EB0612194B03EB82031B8AADF81C302B88ADF81E3007A809F0FEFD50B1144B1B68294613489847442303FBD5
:4039400006F600220E4B9A55104A137803F0FE03137004E00E4A137843F0010313700B4B1B7813F0110F09D0084A137803F0FE031370044B1B682946204698470EB070BD5A
:40398000A888020864800208090001008C8802085988020810B504460088FEF75DFB237E012B24D100EB00129300114A13445B68022B1CD1228942F606239A4212D10D4BE4
:4039C00003EB80035B8843B9E1880A4B03EB80025180227903F8202004E0074B1B68214606489847064A137803F0FE03137010BDA8880208F8880208648002080D00010076
:403A00008C88020810B504460068FEF725FB00EB00108300064A13445B68022B07D100236380A380034A137803F0FE03137010BDA88802088C880208B0F5803F10D308B54E
:403A4000084A904203D00232904204D006E00846FFF7A0FF02E00846FFF7D4FF002008BD0020704731010100F0B108B50F4A10600F48FEF75FFD002313E003EBC3014A00E3
:403A80000C490A4492895AB900210B4A42F8231003EBC3014A0007490A4441F6020111820133002BE9D008BD04487047A8800208393A081094880208F88802080100160087
:403AC00010B501390244904207D010F8013B11F8014FA342F7D0181B10BD002010BD10B5431E0A44914204D011F8014B03F8014FF8E710BD02440346934202D003F8011BEE
:403B0000FAE770470FB40A4B13B51C6824B1A36913B9204600F086F805AB049AA1680193204600F0DFFA02B0BDE8104004B07047144602080EB400B59CB04FF402711DAB37
:403B4000ADF81410029006906FF000410A48049107914FF6FF7153F8042BADF816100068019302A900F0A0F9029B00221A701CB05DF804EB03B070471446020810B50346D6
:403B800042B111F8014B03F8014B013A002CF7D11A4400E010BD934202D003F8014BFAE710BD0000014900F0A9B800BFD5490810002310B50446036043608360818143664A
:403BC000C281036143618361194608225C30FFF791FF054B6362054BA362054BE362054B2462236310BD00BF7546081097460810CF460810F346081070B568234D1E5D4313
:403C00000E4605F1740100F097F8044640B1002180E842000C30A06005F16802FFF76AFF204670BD836910B5044633BB8364C3640365124B124A1B688262984204BF012372
:403C4000836100F01FF86060204600F01BF8A060204600F017F80022E06004216068FFF7A7FF01220921A068FFF7A2FF02221221E068FFF79DFF0123A36110BD685D0810F1
:403C8000A53B0810F8B51C4B1E68B369074613B93046FFF7C7FF4836B4687368013B04D4B4F90C507DB16834F8E733680BB13668F2E704213846FFF79FFF30600028F6D14C
:403CC0000C233B60F8BD4FF6FF73E3810123A38165662560A560656025616561A5610822294604F15C00FFF705FF6563A563A564E5642046F8BD00BF685D08102DE9F84368
:403D00008046894600F14804002694B1A5686768013F0CD4AB89012B07D9B5F90E30013303D029464046C84706436835F0E72468EBE73046BDE8F88370B5CD1C25F0030537
:403D400008350C2D38BF0C25002D064601DBA94202D90C23336046E000F045FF234B1C681A462146A1B10B685B1B0ED40B2B03D90B60CC18CD501EE08C420DBF63684B6804
:403D80006360136018BF0C4615E00C464968E9E7174C23681BB9304600F05CFC20602946304600F057FC431C18D0C41C24F00304A0420DD12560304600F016FF04F10B00B2
:403DC000231D20F00700C31A0ED05A42E25070BD211A304600F03EFC0130EBD10C233360304600F001FF002070BD00BF44880208408802082DE9F0478E689E4282460C46D5
:403E0000914698463ED88A8912F4906F3AD0256809696F1A6569022305EB450595FBF3F57B1C43449D4238BF1D4653050FD52946FFF782FF064698B13A462169FFF74FFE0D
:403E4000A38923F4906343F08003A38113E02A4600F01AFF064670B92169504600F0C6FE0C23CAF80030A38943F04003A3814FF0FF30BDE8F087266165613E44ED1B2660AF
:403E8000A5604646464528BF464632464946206800F08EFEA3689B1BA36023681E4426600020BDE8F08700002DE9F04F9DB0804603938B891C060D4616460DD50B695BB9A8
:403EC0004021FFF739FF2860286118B90C23C8F80030CDE040236B610023099320238DF82930DFF89CB130238DF82A3037463C4614F8013B1BB9B7EB060910D003E0252B41
:403F0000F9D02746F3E74B46324629464046FFF771FF013000F0A780099B4B4409933B78002B00F0A08000234FF0FF3204930793059206938DF853301A9301260522217878
:403F40004E4800F0E5FD671C049B38B14B4A801A06FA00F0184304903C46EFE7D90644BF20228DF853201A0744BF2B228DF8532022782A2A03D0079A00210A200BE0039AAE
:403F8000111D12680391002A10DA524243F00200079204900BE0274601343B78303B092B03D800FB02320121F5E701B107923B782E2B1ED17B782A2B0AD1039B1A1D1B6813
:403FC0000392002BB8BF4FF0FF330237059310E000230593781C19460A24074601303A78303A092A03D804FB01210123F5E703B1059103223978224800F08AFD40B140235E
:40400000CBEB000003FA00F0049B18430490013739781C488DF8281006227E1C00F078FD88B1194B33B9039B073323F007030833039314E003AB00932A46144B04A9404698
:40404000AFF3008007E003AB00932A460F4B04A9404600F0D9F9B0F1FF3F824603D0099B5344099342E7AB895B0601D4099801E04FF0FF301DB0BDE8F08F00BFCC5D081072
:40408000D25D0810D65D081000000000F53D08109368013B002B10B4936009DA9469A34202DBCBB20A2B03D15DF8044B00F026BB1368581C10601970C8B25DF8044B7047B1
:4040C000F8B506460F461446D518AC4208D03A4614F8011B3046FFF7DBFF431CF5D100E00020F8BD2DE9F04F9DB00C4617460393064618B183690BB9FFF794FD7F4B9C42C2
:4041000001D1746808E07E4B9C4201D1B46803E07C4B9C4208BFF468A38918070CD5236953B10023099320238DF8293030238DF82A30DFF8D4B144E02146304600F044FB4F
:404140000028EED04FF0FF30D5E0039A111D12680391002A80F28C80524243F002000792049098F800302E2B00F08480032298F80010654800F0CCFC48B14023CBEB000076
:4041800003FA00F0049B1843049008F1010898F800105E488DF82810062208F1010700F0B7FC002800F09580594B002B40F08880039B073323F0070308330393099B53447E
:4041C0000993B846454615F8013B1BB9B8EB07090FD003E0252BF9D0A846F3E74B463A4621463046FFF76CFF01307FD0099B4B44099398F80030002B78D000234FF0FF32C3
:4042000004930793059206938DF853301A930127052229783F4800F07BFC05F10108049B38B13C4A801A07FA00F0184304904546EEE7D90644BF20228DF853201A0744BF63
:404240002B228DF853202A782A2A3FF47EAF079A00210A20A846013598F80030303B092B03D800FB02320121F4E700293FF479AF079276E798F801302A2B0BD1039B1A1DEC
:404280001B680392002BB8BF4FF0FF3308F1020805936BE70023059308F1010019460A258046013098F80020303A092A03D805FB01210123F4E7002B3FF458AF059155E72C
:4042C00003AB00932246144B04A93046AFF3008007E003AB009322460F4B04A9304600F093F8B0F1FF3F82467FF468AFA3895B063FF528AF09981DB0BDE8F08F6C5D0810AD
:404300008C5D0810AC5D0810D25D0810D65D081000000000CC5D0810C14008102DE9F04791461F460A698B68DDF820809342B8BF1346C9F8003091F8432006460C4612B128
:404340000133C9F800302368990642BFD9F800300233C9F80030256815F0060510D104F1190A07E00123524639463046C04701301AD00135E368D9F800209B1A9D42F1DBA4
:4043800094F843302268003318BF012392060FD5E1185A1C302081F84300224494F8451082F84310023303E04FF0FF30BDE8F08704F1430239463046C0470130F4D02268E4
:4043C000D9F80050E36802F00602042A08BF5D1B2269A3680CBF25EAE57500259342C4BF9B1AED184FF000091A344D4509D00123224639463046C0470130D5D009F1010986
:40440000F3E70020BDE8F0872DE9F04317460A7E85B06E2A984606460C460C9B01F1430E00F0AE8011D8632A22D009D8002A00F0BB80582A40F0CA8081F84520834955E06E
:40444000642A1ED0692A1CD0C0E0732A00F0B08009D86F2A2ED0702A40F0B8800A6842F020020A603EE0752A24D0782A3AD0ADE01A6801F14205111D1960136884F8423085
:40448000A8E021681A6811F0800F02D0111D196008E011F0400F02F10401196002D0B2F9003000E01368002B3CDA2D225B4284F8432037E021681A6811F0800F02D0111DF1
:4044C000196007E011F0400F02F10401196001D0138800E01368227E5C496F2A14BF0A2208221BE078225A4984F845202268186812F0800F00F104051D6003D1550601D59D
:40450000038800E00368D00744BF42F0200222601BB9226822F0200222601022002084F8430001E049490A226568A560002D08DB206820F0040020602BB9002D7DD1754619
:404540000CE0002B79D07546B3FBF2F002FB1033CB5C05F8013D03460028F5D1082A0BD12368DA0708D5236962689A42DEBF302305F8013C05F1FF35C5EB0E0323612EE087
:4045800008681A68496910F0800F03D0101D1860136808E010F0400F02F104001860136801D0198000E0196000232361754616E01A68111D1960156862680021284600F0AA
:4045C000A7FA08B1401B6060636804E004F1420584F8422001232361002384F84330CDF800803B4603AA21463046FFF797FE013002D14FF0FF3026E023692A46394630467F
:40460000C0470130F5D023689B0710D5002504F1190907E001234A4639463046C0470130E7D00135E368039A9B1A9D42F2DBE068039B9842B8BF184605E00B7884F8423046
:4046400004F142058AE705B0BDE8F083DD5D0810EE5D081038B5064C002305460846236000F09EFB431C02D1236803B12B6038BDFC88020810B50C46B1F90E1000F02AFB91
:404680000028ABBF636DA3891B1823F48053ACBF6365A38110BD2DE9F0411F468B89DB0505460C46164605D502230022B1F90E1000F0BAF9A389B4F90E1023F48053A38101
:4046C00032463B462846BDE8F04100F06BB810B50C46B1F90E1000F0A7F9431CA38915BF606523F4805343F48053A38118BFA38110BDB1F90E1000F0D5B80000F8B50F46B0
:404700001446064618B183690BB9FFF78BFA224B9C4201D1746808E0204B9C4201D1B46803E01F4B9C4208BFF468A369A360A3891A0709D523693BB123682069181A6369B5
:404740009842FDB20FDB08E02146304600F03CF80028F1D04FF0FF30F8BD2146304600F039F90028F6D1A368013BA36023685A1C22601F706269431C934204D0A389DB07A6
:4047800007D50A2D05D12146304600F023F90028E0D12846F8BD00BF6C5D08108C5D0810AC5D081038B5074C054608461146002222601A4600F002FB431C02D1236803B1D7
:4047C0002B6038BDFC880208324B70B51D6806460C4625B1AB6913B92846FFF723FA2E4B9C4201D16C6808E02C4B9C4201D1AC6803E02B4B9C4208BFEC68B4F90C309AB208
:4048000015071DD4D00602D4092232603AE0510712D5616B41B104F14403994202D0304600F0E4F900236363A38923F02403A3810023636023692360A38943F00803A381C9
:4048400023694BB9A38903F42073B3F5007F03D02146304600F01EF9A28912F0010305D00023A36063695B42A36103E0920758BF6369A36023695BB9B4F90C3003F080001D
:4048800080B230B143F04003A3814FF0FF3070BD002070BD144602086C5D08108C5D0810AC5D081038B5064C002305460846236000F04EFA431C02D1236803B12B6038BD55
:4048C000FC8802088A892DE9F041054610070C4659D44B68002B02DC0B6C002B17DDE66AAEB102F48052002392B22F682B600AB1606D15E0216A01232846B047411C0FD1CF
:404900002B686BB11D2B01D0162B03D12F600020BDE8F081A38943F04003A381BDE8F081A3895A0705D56368C01A636B0BB1236CC01A00230246E66A216A2846B047431CF0
:40494000A38906D129681D293AD8214ACA40D60736D500226260D9042269226004D5421C01D12B6803B96065616B2F600029CED004F14403994202D0284600F037F900204A
:404980006063BDE8F0810F69002FC0D093070E6808BF4B690F6018BF0023C7EB06088B6002E00744C0EB0808B8F1000FAFDD43463A46216AA66A2846B0470028F1DCA389F2
:4049C00043F04003A3814FF0FF30BDE8F08100BF0100402038B50B6905460C46DBB118B183690BB9FFF71EF90C4B9C4201D16C6808E00B4B9C4201D1AC6803E0094B9C4277
:404A000008BFEC68B4F90C302BB121462846BDE83840FFF757BF002038BD00BF6C5D08108C5D0810AC5D081038B5074C054608461146002222601A4600F0A2F9431C02D1D0
:404A4000236803B12B6038BDFC88020870B50E46B1F90E10002990B014461D4606DA00232B60B3891A060ED540230EE001AA00F043F90028F3DB029A02F47042A2F5005369
:404A80005A425A412A604FF480630020236010B070BD00008B8973B59E0705460C4610D401AB6A46FFF7D2FF009906462846FFF743F968B9B4F90C309A0522D443F002039E
:404AC000A38104F14703236023610123636118E00D4BAB62A389206043F08003A381009B6361019B20614BB1B4F90E10284600F015F918B1A38943F00103A381A0893043E6
:404B0000A08102B070BD00BFA53B08100000000001F0FF01102A2BDB10F0070F08D010F8013B013A8B422DD010F0070F42B3F6D1F0B441EA012141EA014122F007047FF09A
:404B400000070023F0E80256083C85EA010586EA010685FA47F5A3FA87F586FA47F6A5FA87F68EB9EED1F0BC01F0FF0102F0070232B110F8013B013A83EA010313B1F8D100
:404B80000020704701387047002D06BF35460338073815F0010F07D1013015F4807F02BF013015F4C03F0130F0BC0138704700BF884210B501EB020301D8421E0BE098421D
:404BC000FBD28118D21AD34204D013F8014D01F8014DF8E710BD994204D011F8014B02F8014FF8E710BD70477047000038B50546002946D051F8043C0C1F002BB8BFE418FD
:404C0000FFF7F1FF1F4A1368114613B96360146032E0A3420ED92268A018834204BF18685B68636004BF121822600C6024E0A24203D813465A68002AF9D118681918A14261
:404C40000BD12168014458188242196014D1106852685A60014419600EE002D90C232B600AE021686018824204BF10685268626004BF091821605C602846BDE83840FFF7C3
:404C8000B3BF38BD44880208F8B5074615460E4621B91146BDE8F840FFF74EB81AB9FFF7A5FF2846F8BD00F049F885420ED929463846FFF741F8044650B131462A46FEF752
:404CC0000EFF31463846FFF791FF01E03046F8BD2046F8BD38B5074C054608461146002222601A4600F054F8431C02D1236803B12B6038BDFC88020838B5074C0023054668
:404D000008461146236000F02BF8431C02D1236803B12B6038BD00BFFC88020838B5064C002305460846236000F022F8431C02D1236803B12B6038BDFC88020851F8040C9A
:404D40000028BEBF091851F8043CC01804387047024B58221A604FF0FF307047FC880208024B58221A604FF0FF307047FC880208024B58221A600020704700BFFC880208CC
:404D8000024B58221A604FF0FF307047FC880208024B58221A604FF0FF307047FC880208044A05491368002B08BF0B4618441060184670474888020800890208024B58229C
:404DC0001A604FF0FF307047FC880208F8B500BFF8BC08BC9E467047F8B500BFF8BC08BC9E4670476D61696E5F636D342E63000043595F424C455F4556545F535441434BFE
:404E00005F4F4E200D0A00005374617274204164766572746973656D656E7420415049204572726F723A202564200D0A000000005374617274204164766572746973656D36
:404E4000656E742041504920537563636573733A202564200D0A000043795F424C455F4741505F47657442644164647265737320415049204572726F723A202564200D0A90
:404E80000000000043795F424C455F4741505F4765744264416464726573732041504920537563636573733A202564200D0A000043595F424C455F4556545F54494D454FDC
:404EC0005554200D0A0000004861726477617265204572726F72200D0A00000043595F424C455F4556545F535441434B5F425553595F5354415455533A2025780D0A00005F
:404F000043595F424C455F4556545F4C455F5345545F4556454E545F4D41534B5F434F4D504C455445200D0A0000000043595F424C455F4556545F5345545F44455649438E
:404F4000455F414444525F434F4D504C455445200D0A000043595F424C455F4556545F4745545F4445564943455F414444525F434F4D504C4554453A2000000025322E32D6
:404F80007800000043595F424C455F4556545F5345545F54585F5057525F434F4D504C455445200D0A00000043595F424C455F4556545F535441434B5F53485554444F5742
:404FC0004E5F434F4D504C455445200D0A000000456E746572696E672068696265726E617465206D6F6465200D0A000043595F424C455F4556545F474150505F4144564548
:4050000052544953454D454E545F53544152545F53544F503A2000004164766572746973656D656E742073746172746564200D0A000000004164766572746973656D656E39
:40504000742073746F70706564200D0A0000000043595F424C455F4556545F4741505F4445564943455F434F4E4E4543544544200D0A0000435920424C45204556542047D6
:4050800041502044455649434520444953434F4E4E4543544544000043595F424C455F4556545F4741505F4445564943455F444953434F4E4E45435445442025640D0A0008
:4050C00043595F424C455F4556545F4741505F434F4E4E454354494F4E5F5550444154455F434F4D504C455445200D0A0000000043595F424C455F4556545F4741505F4506
:405100004E48414E43455F434F4E4E5F434F4D504C455445200D0A0043595F424C455F4556545F474154545F434F4E4E4543545F494E443A2025782C202578200D0A0000E1
:4051400043595F424C455F4556545F474154545F444953434F4E4E4543545F494E44200D0A00000043595F424C455F4556545F47415454535F58434E48475F4D54555F52EF
:405180004551200D0A00000043595F424C455F4556545F47415454535F524541445F434841525F56414C5F4143434553535F524551200D0A0000000043595F424C455F45E9
:4051C00056545F474150435F5343414E5F50524F47524553535F524553554C5400000000416464723A2025730A0A0000525353493A20256868640A0A0000000043595F422F
:405200004C455F4556545F474150435F5343414E5F53544152545F53544F5000537461722F53746F70204576656E740A000000004F74686572206576656E743A20256C78BD
:40524000200D0A0043795F424C455F537461727420415049204572726F723A202578200D0A000000537461636B2056657273696F6E3A2025642E25642E25642E2564200D19
:405280000A000000424C45205363616E20537461727465640A0000004661696C7572652120203A20424C45202D204661696C656420746F207374617274207363616E203AF3
:4052C000200D0A000300000001000000010000000000000005036000040000000100000000000000010000000604600008000000A47F0208F10708100000000001000F0045
:4053000001000028010000000B0000000018000000000000020003280100020003000000002A0000000000000300002A010002010300000008000000F84202080400032814
:405340000100020005000000012A0000000000000500012A01000201050000000200000000430208060003280100020007000000A62A0000000000000700A62A010002018C
:40538000070000000100000008430208080003280100020009000000042A0000000000000900042A010002010900000008000000104302080A000328010002000B00000037
:4053C000C92A0000000000000B00C92A010002010B00000001000000184302080C000028010000000F00000001180000000000000D000328010020000F000000052A000053
:40540000000000000E00052A000020010F00000004000000204302080F00022901010A030F0000000200000028430208010003000500090007000B000C000E000F00000072
:4054400047656E6572617465645F536F757263655C50536F43365C70646C5C647269766572732F7065726970686572616C2F6970632F63795F6970635F6472762E68000042
:4054800047656E6572617465645F536F757263655C50536F43365C70646C5C647269766572735C7065726970686572616C5C6970635C63795F6970635F6472762E6800007B
:4054C00047656E6572617465645F536F757263655C50536F43365C70646C5C647269766572735C7065726970686572616C5C6970635C63795F6970635F6472762E63000040
:4055000047656E6572617465645F536F757263655C50536F43365C70646C5C647269766572735C7065726970686572616C5C6970635C63795F6970635F706970652E63009D
:4055400047656E6572617465645F536F757263655C50536F43365C70646C5C647269766572735C7065726970686572616C5C737973696E745C63795F737973696E742E638E
:405580000000000047656E6572617465645F536F757263655C50536F43365C70646C5C647269766572735C7065726970686572616C5C737973706D5C63795F737973706DBB
:4055C0002E6300000000204000002440000000400000000000002340000030400000314000009F40000022400000104002020202020202020210101D800017007500FF03E4
:405600000602063604102000000000007FC0000000040000000000000019324B647D00804000080B100000000000FF012002001F00800004FF081018001000140018001C09
:405640004044484C50000000081000000800000004000000041000000012000004210000002100000016000040114002C41300138013A013200000001C00000000002140BC
:4056800000002540000001400000344000002440000031400000324000001F410000234000001140010101010101010101101010800019005500F0000501053B04101C01E7
:4056C000010000000FC000000004000001010101011D3A57789600082000101208000000001F00000010000F002000023F06080E00080009000A000B24282C303400000006
:40570000100000009000000088000000080000008000000004F0000000F00000400200002005A000D00100018001A001200000001000000024000600300001002800020025
:405740002400020000316253C4F5A697B988DBEA7D4C1F2E4372211087B6E5D4FACB98A93E0F5C6D86B7E4D5427320113F0E5D6CFBCA99A8C5F4A796013063527C4D1E2F29
:40578000B889DAEB3D0C5F6EF9C89BAA84B5E6D7407122137E4F1C2DBA8BD8E9C7F6A59403326150BB8AD9E87F4E1D2C02336051C6F7A495F8C99AAB3C0D5E6F41702312F9
:4057C00085B4E7D67A4B1829BE8FDCEDC3F2A1900736655439085B6AFDCC9FAE80B1E2D344752617FCCD9EAF38095A6B4574271681B0E3D2BF8EDDEC7B4A192806376455B9
:40580000C2F3A0914776251483B2E1D0FECF9CAD3A0B586904356657C0F1A293BD8CDFEE79481B2AC1F0A3920534675678491A2BBC8DDEEF82B3E0D1467724153B0A5968B8
:40584000FFCE9DAC3F06000000000000FFFF000047656E6572617465645F536F757263655C50536F43365C70646C5C6D6964646C65776172655C626C655C63795F626C651A
:405880005F6761702E680000000404000104080002041400030C200004042C0005064800FDA1081091A6081091A6081091A6081091A60810798C08104D8D081091A6081086
:4058C00091A6081091A6081091A6081091A6081091A6081091A6081091A6081091A6081091A6081025A4081071A40810A99A0810AD9C081089A00810097B0810000000003A
:405900000C5D0810AC5C081008000000AD170910000000007C5B0810C85A08100F000000000000000000000000000000000000000000000001200000A5B2081006200000F3
:40594000E9B3081007200000B9B2081008200000A9B3081009200000A9B408100A200000A5B108100B2000006DB408100C20000035B408101020000001B20810112000003A
:4059800081B108101220000085B308101420000021B408101520000019B2081017200000D5B108100E20000005B20810ACFD00007BB60810ADFD00006FB50810A0FD00009B
:4059C000E5B60810A1FD0000CFB50810A2FD00000BB60810A5FD0000DBB70810A6FD00003FB70810A8FD000041B50810A9FD000017B50810AAFD000033B60810ABFD0000B8
:405A0000A1B70810AFFD000031B60810C3FD00008DB70810B0FD000005B70810B2FD000053B70810051400005FB208102D0C000039B308107B0C0000E7B208107C0C00009E
:405A4000DDB4081027200F2028201020292010202B200A202C200B202D200D202E200C204E201720000001000100000100010202030002000000000002020100020000017C
:405A8000000100050100050202030002000000000002050100050000B90F0910211109102910091001010B0102028102820503040403840906090709080909090A09050A2B
:405AC0000C0B0D0D0E0E0000010000000100000000000000020000000400000002000000030000000700000005000000040000000A00000008000000050000000C00000019
:405B00000B000000060000000E0000000D00000007000000100000000F0000000800000013000000110000000900000016000000140000000A00000017000000170000007C
:405B4000FF00000018000000180000000B0000001B000000190000000C0000001D0000001C0000000D0000001F0000001E0000000E000000210000002000000001000000D8
:405B800095340910FEFFFFFF6133091001000000953409100600000059360910F8FFFFFF61330910180012007D330910A000000CD530091047FFEDFB61330910E8000C009C
:405BC000CD32091000012000DD3109101FFED3FF61330910A000000CF53A09105FFFFFFB61330910000200004D390910FFFDFFFF61330910000C0000DD2F0910FFF3FFFF47
:405C000061330910000A00008132091001000000A1320910FEF7FFFF61330910002000002131091000400000FD390910FF9FFFFF61330910FFFFFFFF67330910FFFFFFFF46
:405C4000D72F091000800000B92F0910000001009B2F0910FF7FFEFF61330910008001005F2F0910FF7FFEFF6133091000008003412F0910FFFF7FFC6133091000801F0A4D
:405C80007D2F0910FF7FE0F5613309100000000000000000000000000000000087000000000000000000000000000000810000000000000000000000820000000100000094
:405CC00001000000010000000200000002000000020000000400000003000000030000000600000005000000F10000000700000007000000F2000000090000000800000085
:405D0000FF0000000A0000000A00000002000000853F091001000000853F09100E000000793E091002000000BD3E09100C000000613E091002000000FD3E09100C00000079
:405D4000613E09100E000000853F09100C000000C13F091002000000613E09100E0000000540091043000000B44502080000000000000000000000000000000000000000EF
:405D800000000000000000000000000000000000000000000000000000000000000000000000000000000000000000000000000000000000000000000000000000000000E3
:405DC000000000000000000000000000232D302B2000686C4C00656667454647003031323334353637383941424344454600303132333435363738396162636465660000B0
:405E0000000000002DE9F05F00250746041D00F1180840682E4E4FF6FF7A88B1616879B180070DD1207A80070AD198F8300038B12849084600F0B4FB10EA0A0002D044E0E9
:405E4000354642E02289A37ADFF88C90206858B1C9F800000025A9F80420A9F80650A9F808302946FDF746FEA07A801D00F0FF0B5946606800F072F8050021D1404601F037
:405E80007FF905001CD1E06820B1384600F0DCFA050015D1B9F80400B9F80610884206D3401A80B2594600F0BBFE20B100E05046354628B109E0A07A801DC0B200F0D6F9D1
:405EC00000F0EAF90549012008702846BDE8F09F0100160091610810AC800208F443020803480078012801D100F02ABD70470000F443020810B500F085FB04490020086017
:405F00008880C88008810249087010BDAC800208F443020870B5044600208A0703D001F00302891A091D084B89B2DA889E885518B54206D81D682A442260DA881144D980F2
:405F400070BD024870BD0000AC800208030016000148008970470000AC8002082DE9F84705460C460020890000908A466846FFF7D1FF07004BD12748009B0022036017E057
:405F800003F82220062A08D2234803EB820100EB820046784E70408807E005EB8200183803EB820186784E700088521C4880D2B2A242E5D300251EE005F1010909F0FF003E
:405FC00015E003EB850203EB8001B2F802C04E88B4450AD991F80180A1F802C092F801C081F801C0568082F80180401CC0B2A042E7D309F0FF05A542DED347B951466846AB
:40600000FFF788FF070002D10449009808603846BDE8F887F843020888580810FC430208F0B5002319E05A1C00EB830612E030F8235030F82240A5420BD2778820F8234094
:4060400000EB8204B4F802C0A6F802C020F822506780521C8A42EAD35B1C8B42E3D3F0BD00487047B880020805F074BD064940B1A1218180052101700021417006218170E7
:40608000002108467047000001001600FFF728BF10B5022401F018F810B100F03FFF00B90124204610BD05207047000010B5002428B132220349FDF712FD204610BD02481C
:4060C00010BD0000B880020801001600F8B506004FF000008DF8000006F1040407D020892081304601F0C8F8050002D012E01248F8BDA17A6A46606801F098F8050009D1F1
:40610000E06838B1B6F84400000903D0304600F0FBF905462089208165B93046FFF772FE050007D1304600F09FFF0546A17A6068FFF776FF2846F8BD0100160038B50400D2
:406140004FF00000ADF8000008D0A18D090A05D1617A102902D8E179102901D90A4838BDE0856946204600F0BBFF0500E08DBDF800100844E08504D1322221460348FDF7CF
:40618000AEFC284638BD000001001600B880020870470000002809D005494A68002A05D0011F087852F8200000F0E4BC70470000F843020810B50446FFF7CAFEC0B2801D50
:4061C000A0420BD30648406840B150F8240000F03DFC002801D000F8044B10BD002010BDF8430208F8B516460D460446FFF7B0FEC0B2801DA04203D24FF0FF300090F8BD61
:40620000B2B2E9B2684600F04BFC0099481C03D00248406840F824100098F8BDF84302082DE9F0410746FFF793FE801D0B49C6B2002005460C680CE0617839B16188B942C4
:4062400002D32078FFF7B6FF002804D1241D6D1CEDB2B542F0D3BDE8F0810000F8430208002801D0FFF796BF7047000070B506460848002504680AE0617829B1628820781F
:40628000121D0023FFF7AEFF241D6D1CEDB2B542F2D370BDF84302081CB50024142001908DF800402346064A694606480CF010F804480068401C01D14FF6FF7420461CBD40
:4062C00001630810004402080EB50C4A0146002312684FF6FF7004290DD009290AD109200093ADF80800ADF80A30694610460BF0ECFF80B20EBD04200093F2E700440208FE
:4063000070B5D0E90054468900890C282DD2DFE800F02C2C0606112C2C152C191C27E0B23246294609F08AF9E0B23246294600F037FD1AE000200BF0D3FC16E02878FBF781
:4063400005FC12E000F00AFE0FE0E8B2022C02D008F0B2FE09E0FF2807D002F05FFF04E02846022C03D008F07DFF002070BD03F02FFAFAE70148006800F0CABA0044020846
:406380002DE9F0411F4F0026386D60B1796D51B14218891E12F8024C0022FBF747FB844201D0194E2BE0002505EB850307EB8304606800B357F82310E9B16289D7F854C031
:4063C000624518D294F80CC01CF0090F02D0FDF786FB0AE009780170606831B1628957F82310083A08310830F1E723691BB10122207B114698476D1CADB2042DD4D3304649
:40640000BDE8F081EC800208FFFF1600F0B5C10701D040F008000B4CFF2184F85D10002101250E4601EB810204EB820205FA01F3177B03409F4200D11681491CC9B204294B
:40644000F0D3F0BDEC80020870B5134908B3B0F84410124CC1F30711002584F85C10016921654069C4E91505FF2684F85D6028464FF6FF7300EB800204EB8201401C4B81DD
:4064800044F822500D610E73C0B20D810428F1D30021084670BD000001001600EC80020810B5174B48B3417839B3002202E04908521CD2B20029FAD102EB8201114A02EB6C
:4064C000810111F8084CFF2C17D103787BB1438821F80A3C946D136D234441F8143C4488936D2344936582680AB141F8042C103942780A72406800230860184610BD000052
:4065000001001600EC800208F0B5B0F84420234C46690021C2F30712D2B3D3070BD090F8203003EBC30505EB431501EB850101EB031101F14001530715D5C37F2C2513FB76
:4065400005F55FEA857C4FF00C0723D003EB430505EBC30307EB830505F00305C5EB830505F11005294492070ED590F821004FF00803C20095070FD003EBC00202F003022C
:40658000C2EBC0020C321144891C8E4200D300242046F0BD0C35E5E70832F4E7010016000F4A10B5002313600E4A13600E4B18600E4801600E49012008600E490860000279
:4065C0000E4990600C4808600D4914300860A0F58A70506000F0D0F800F008FA002010BD1C44020804440208304402083444020820440208104402084C82020814440208FE
:40660000284402080020704710B501004FF0000010D0094B1A689C681144A14209D25868196010448A0704D001F00302891A091D196010BD002010BD044402082DE9F041BE
:4066400002461A4F002010253B1F4FF0FF38444639681B6807E000EB800605EB86068E59761C1ED0401C9842F5D3601C16D004EB84060C2000EB86000A5002EB42008000DC
:40668000FFF7C2FF396841F8260060B1396805EB8602002088507868401C78602046BDE8F0810446E1E74046F9E70000144402082DE9F0410F464FF0FF36002821DB2249F8
:4066C000096888421DD8E7B1DFF87C8000EB800508F104081020D8F8001000EB85040859401C0ED0FBF7D0F9D8F800000C2202EB8502015950F802C04346614504DBFBF7DA
:40670000BDF93046BDE8F081082101EB8506815950F8250001EB410500EB85003D6805607D684560BD6885601868491C82588A4200D10021815118680159491C0151FBF71E
:406740009DF90020DEE7000010440208002803DB08490968884202D94FF0FF307047054900EB8000091D1022096802EB8000085870470000104402082DE9F0430020134A84
:406780000427441E03464FF0080C1025A2F10409506014E000EB8001166807EB8108401C46F8083016680CEB810846F80830166805EB810846F80840166846F82130D9F831
:4067C00000108842E6D30020BDE8F083144402082DE9F0410E464FF0FF3700284CDB29490968884248D8EEB3DFF8988000EB800408F104081020D8F8001000EB8405485917
:40680000401C39D0FBF740F9D8F800004346415949B3042101EB8407C25950F8240002EB420100EB8100521CD0F800C0C6F800C0D0F804C0C6F804C08068B060186850F8D8
:40684000240000EB810000210160416081600C21186801EB84014158914200D10022C251186801E008E009E04159491E4151FBF705F90020BDE8F0813846FBE7FBF7FEF8C1
:40688000FAE70000104402082DE9F0470D4601001E4C4FF00000089E80464FF0FF37206010D0606885420DD262B15EB1642E09D804F10C09C5EBC501D9F8000000EB81044A
:4068C000207A10B13846BDE8F0870120226020721846FFF7B3FE6060401C13D06681A6812761676199F80410A94201D289F8045041460B4661F30F030A46284600F052F89E
:406900002846E0E784F80880DCE700001C44020810B5002810DB0949496888420CD80749C0EBC0000C31096801EB80004068FFF70DFF08B1002010BD012010BD1C440208EB
:40694000FEB5174E4FF0FF373D4600240DE03068C4EBC40100EB8100017A29B14068FFF7F5FE08B1254603E0641C3079A042EEDA681C13D03068C5EBC50100EB8104FBF7E7
:4069800083F869466068FFF723FF0546FBF776F8002DD9D1216868468847D5E7FEBD00002844020838B50024009400F001F838BD1FB500220C49541E00280A6012DB4968E8
:4069C00088420FD80849C0EBC0000C31096801EB800001A94068FFF76BFE401C02D0002004B010BD2046FBE71C440208F0B50021154A4E1EA2F10C0711710B46BE601EE0B8
:406A0000C1EBC1000425146805EB800566511468082505EB800544F820301468635514680C2505EB8005635314680A2505EB800563531825146805EB8000491C26507868A8
:406A40008142DDD30020F0BD2844020838B5041E4FF00000009012DB1048007884420EDA0E4D0C35286800EB0411096839B1042101EB04110844694600F047F908B1002066
:406A800038BDFBF701F80F21286801EB0411425C521E4254FAF7F2FF009838BD384402082DE9F74F8A46002500996C1ED21C0C604FF6FC71DFF8B88002EA0107A8F10C0173
:406AC00028460A78D8F8001005E001EB00131B687BB1401CC0B29042F7D3601C2CD0042000EB041B01EB0B00514600F0FDF818BB01E00446F1E7D8F800000C2101EB0411DC
:406B000047520E22D8F8001002EB041207FB0AF001F802A00F22D8F8001002EB041201F802A000F0ABF8D8F8001001EB0411086010B1814600260EE0012516E0D8F80010EF
:406B400001EB0B00494600F0FAF808B1012500E0B944761CF6B25645F0D335B90098046098F80410491C88F804102846BDE8FE8F44440208F8B54FF000070D46041EADF893
:406B800000703ADB25480078844236DADFF88CC00CF10C0CDCF8001001EB0410006860B30C2202EB04128E5A0E2202EB041285428B5C06FB030220D395421ED2002205E03D
:406BC00002FB060EAE4504D0521CD2B29A42F7D39FB1042000EB0417C81966466A46294600F0C7F848B9BDF80000012807D030682946384400F0A3F818B10120F8BD0020CD
:406C0000F8BDFAF741FF0F21306801EB0411425C521C4254FAF732FFF1E70000384402082DE9F0410D46002400F03CF8002821D11149002201F10C034A600C210E264FF0C0
:406C40000F0E14E01F6801EB041C07EB04173A601F6827F80C201F6806EB041C07F80C200EEB041C1F68641CE4B207F80C20AC42E8D31A71BDE8F0813844020800280BD080
:406C8000074AC01C20F00301506853880144994203D8936851601844704700207047000038440208F8B5064600200E4D00900C01297021466846FFF72DF958B905F10C01FA
:406CC00000980860301B001F84B221466846FFF721F910B14FF6FF70F8BD6C800098A8600020F8BD3844020830B50D4604000AD0A800FFF7C3FF606028B125704FF0FF30AC
:406D00006080002030BD012030BD70B50D46040004D01DB1B4F90200002801DA012070BDFAF7B2FEB4F90210606850F8210028606088401E6080FAF7A1FE002070BD70B5F9
:406D40000D46040006D02DB12078B4F90210401E814201DB012070BDFAF796FE6088401C00B26080616841F82050FAF787FE002070BD70B500231D4610B1B0F902400AE095
:406D8000012070BD466856F823608E4201D1012503E05B1CDBB29C42F4DA1570002070BD70B586B015460E460446182200216846FCF7A0FE00238DF800308DF80140ADF8A8
:406DC00004506846029600F00CF906B070BD00000EB501890091407801900A20ADF808000020ADF80A000348694600680BF06DFA0EBD0000004402080EB5416800914178C1
:406E000001910221ADF808100089ADF80A000348694600680BF059FA0EBD00000044020800F0DEB802490020488000F071B800004C4402082DE9F04107462148012500242C
:406E400005704FF6FF75012F02D0022F2FD10DE0477082801B4A128842F4807282818160174800F0BEF810BB2C4620E0164E012B20D0B6F800C0022B624492B2328010D027
:406E800081607188091D8A4211D1104947708280098841F400718181094800F0A2F818B103E009684161ECE72C46002030802046BDE8F0814A887280096801610420F5E717
:406EC0007C820208304502084C440208B444020870B504460D4600EB4400C20000212846FCF708FE074A0020074914711560907150710648FAF7CEFD08B1002070BD012086
:406F000070BD000050440208D16D0810F96D081001491420FFF7DCBF9482020810B5FAF7A5FD06494A7989798A4201D1012400E00024FAF79FFD204610BD000050440208F2
:406F400005494879401CC0B248710A79904201D100204871704700005044020810B5FAF793FD0B4948798A7990420DD0096800EB400001EBC000AFF21B020649FAF7A4FD32
:406F800010B10920FFF7A0F9BDE81040FAF776BD50440208416F081070B5104C0146A2796379501CC0B2834216D02579854200D193B1206802EB420200EBC2001822FCF784
:406FC0008EFDA079401CC0B2A0712179884201D10020A071012070BD002070BD50440208704710B5FFF7D8FF0446FFF7B7FF204610BD000010B5124802F004FC68B9114871
:4070000002F020F848B911490F480860084600F051FA10B90E4809F01BFA04000ED1FFF7AFF90404240C04D0002141F2050000F07FF900214FF4805000F07AF9204610BD5E
:40704000FD870810AB8B081011C2081060440208E9BD081010B504F0E7FB03F017FDBDE8104004F06BBD000070B50546041D00F1180600F09BF91248296801606168098852
:407080008180A17A03290FD361688979017261684989C1F34701417261688989C180B179817296F83010C17200F090F8002806D100F0A4F8002802D1024A0121117070BDCA
:4070C000748402085844020810B502F085F9012803D1FFF74FF9012800D0002010BD00002DE9F0411C4D0C46060005D0DFF86C8098F8000018B16D1C2846BDE8F081B08D4F
:4071000008F00AFC308808F00DFC0500F4D130460AF06EF80746304603F042FB0744304600F0F8FF384400F634102080304605F0D2FC21880844208096F83010C1EBC101FD
:4071400000EBC1002080304601F012FC218808442080A8F80400CFE7010016005844020810B505F053FC03F029FB00F0A3FF0AF06CF801F0B9FBBDE8104008F09FBB0000A6
:4071800010B5040010481DD0204608F09FFB002818D1204601F0B6FB002813D120460AF05FF800280ED1204600F08CFF002809D1204603F009FB002804D12046BDE810404E
:4071C00005F030BC10BD000001001600094810B50949C07A887000F051FF064801F0D2FB002806D103F002FBBDE81040014805F053BC10BD748402085844020810B5002257
:407200000849094800F002FF10F0FF0008D000220449054800F0FAFEBDE8104004F05ABF10BD0000F56F081045AF0810F0B5002635461670334616E030F82340082C0AD90C
